{
  "_format": "hh-sol-artifact-1",
  "contractName": "Hello",
  "sourceName": "contracts/Hello.sol",
  "abi": [
    {
      "inputs": [],
      "stateMutability": "nonpayable",
      "type": "constructor"
    },
    {
      "inputs": [],
      "name": "call",
      "outputs": [
        {
          "internalType": "string",
          "name": "",
          "type": "string"
        }
      ],
      "stateMutability": "view",
      "type": "function"
    },
    {
      "inputs": [
        {
          "internalType": "string",
          "name": "updated",
          "type": "string"
        }
      ],
      "name": "change",
      "outputs": [],
      "stateMutability": "nonpayable",
      "type": "function"
    },
    {
      "inputs": [],
      "name": "greeting",
      "outputs": [
        {
          "internalType": "string",
          "name": "",
          "type": "string"
        }
      ],
      "stateMutability": "view",
      "type": "function"
    },
    {
      "inputs": [],
      "name": "name",
      "outputs": [
        {
          "internalType": "string",
          "name": "",
          "type": "string"
        }
      ],
      "stateMutability": "view",
      "type": "function"
    },
    {
      "inputs": [],
      "name": "owner",
      "outputs": [
        {
          "internalType": "address",
          "name": "",
          "type": "address"
        }
      ],
      "stateMutability": "view",
      "type": "function"
    },
    {
      "inputs": [],
      "name": "sayHelloWorld",
      "outputs": [
        {
          "internalType": "string",
          "name": "",
          "type": "string"
        }
      ],
      "stateMutability": "pure",
      "type": "function"
    },
    {
      "inputs": [],
      "name": "symbol",
      "outputs": [
        {
          "internalType": "string",
          "name": "",
          "type": "string"
        }
      ],
      "stateMutability": "view",
      "type": "function"
    }
  ],
  "bytecode": "0x60806040526040518060400160405280601081526020017f4d7920486172646861742048656c6c6f00000000000000000000000000000000815250600090816200004a9190620003a8565b506040518060400160405280600381526020017f4d4848000000000000000000000000000000000000000000000000000000000081525060019081620000919190620003a8565b503480156200009f57600080fd5b5033600260006101000a81548173ffffffffffffffffffffffffffffffffffffffff021916908373ffffffffffffffffffffffffffffffffffffffff1602179055506040518060400160405280600b81526020017f48656c6c6f20576f726c6400000000000000000000000000000000000000000081525060039081620001279190620003a8565b506200048f565b600081519050919050565b7f4e487b7100000000000000000000000000000000000000000000000000000000600052604160045260246000fd5b7f4e487b7100000000000000000000000000000000000000000000000000000000600052602260045260246000fd5b60006002820490506001821680620001b057607f821691505b602082108103620001c657620001c562000168565b5b50919050565b60008190508160005260206000209050919050565b60006020601f8301049050919050565b600082821b905092915050565b600060088302620002307fffffffffffffffffffffffffffffffffffffffffffffffffffffffffffffffff82620001f1565b6200023c8683620001f1565b95508019841693508086168417925050509392505050565b6000819050919050565b6000819050919050565b600062000289620002836200027d8462000254565b6200025e565b62000254565b9050919050565b6000819050919050565b620002a58362000268565b620002bd620002b48262000290565b848454620001fe565b825550505050565b600090565b620002d4620002c5565b620002e18184846200029a565b505050565b5b818110156200030957620002fd600082620002ca565b600181019050620002e7565b5050565b601f82111562000358576200032281620001cc565b6200032d84620001e1565b810160208510156200033d578190505b620003556200034c85620001e1565b830182620002e6565b50505b505050565b600082821c905092915050565b60006200037d600019846008026200035d565b1980831691505092915050565b60006200039883836200036a565b9150826002028217905092915050565b620003b3826200012e565b67ffffffffffffffff811115620003cf57620003ce62000139565b5b620003db825462000197565b620003e88282856200030d565b600060209050601f8311600181146200042057600084156200040b578287015190505b6200041785826200038a565b86555062000487565b601f1984166200043086620001cc565b60005b828110156200045a5784890151825560018201915060208501945060208101905062000433565b868310156200047a578489015162000476601f8916826200036a565b8355505b6001600288020188555050505b505050505050565b6109c2806200049f6000396000f3fe608060405234801561001057600080fd5b506004361061007d5760003560e01c80638da5cb5b1161005b5780638da5cb5b146100dc57806395d89b41146100fa578063c1dcab1414610118578063ef690cc0146101345761007d565b806306fdde031461008257806328b5e32b146100a057806345773e4e146100be575b600080fd5b61008a610152565b6040516100979190610494565b60405180910390f35b6100a86101e0565b6040516100b59190610494565b60405180910390f35b6100c6610272565b6040516100d39190610494565b60405180910390f35b6100e46102af565b6040516100f191906104f7565b60405180910390f35b6101026102d5565b60405161010f9190610494565b60405180910390f35b610132600480360381019061012d919061065b565b610363565b005b61013c610376565b6040516101499190610494565b60405180910390f35b6000805461015f906106d3565b80601f016020809104026020016040519081016040528092919081815260200182805461018b906106d3565b80156101d85780601f106101ad576101008083540402835291602001916101d8565b820191906000526020600020905b8154815290600101906020018083116101bb57829003601f168201915b505050505081565b6060600380546101ef906106d3565b80601f016020809104026020016040519081016040528092919081815260200182805461021b906106d3565b80156102685780601f1061023d57610100808354040283529160200191610268565b820191906000526020600020905b81548152906001019060200180831161024b57829003601f168201915b5050505050905090565b60606040518060400160405280600b81526020017f48656c6c6f20576f726c64000000000000000000000000000000000000000000815250905090565b600260009054906101000a900473ffffffffffffffffffffffffffffffffffffffff1681565b600180546102e2906106d3565b80601f016020809104026020016040519081016040528092919081815260200182805461030e906106d3565b801561035b5780601f106103305761010080835404028352916020019161035b565b820191906000526020600020905b81548152906001019060200180831161033e57829003601f168201915b505050505081565b806003908161037291906108ba565b5050565b60038054610383906106d3565b80601f01602080910402602001604051908101604052809291908181526020018280546103af906106d3565b80156103fc5780601f106103d1576101008083540402835291602001916103fc565b820191906000526020600020905b8154815290600101906020018083116103df57829003601f168201915b505050505081565b600081519050919050565b600082825260208201905092915050565b60005b8381101561043e578082015181840152602081019050610423565b60008484015250505050565b6000601f19601f8301169050919050565b600061046682610404565b610470818561040f565b9350610480818560208601610420565b6104898161044a565b840191505092915050565b600060208201905081810360008301526104ae818461045b565b905092915050565b600073ffffffffffffffffffffffffffffffffffffffff82169050919050565b60006104e1826104b6565b9050919050565b6104f1816104d6565b82525050565b600060208201905061050c60008301846104e8565b92915050565b6000604051905090565b600080fd5b600080fd5b600080fd5b600080fd5b7f4e487b7100000000000000000000000000000000000000000000000000000000600052604160045260246000fd5b6105688261044a565b810181811067ffffffffffffffff8211171561058757610586610530565b5b80604052505050565b600061059a610512565b90506105a6828261055f565b919050565b600067ffffffffffffffff8211156105c6576105c5610530565b5b6105cf8261044a565b9050602081019050919050565b82818337600083830152505050565b60006105fe6105f9846105ab565b610590565b90508281526020810184848401111561061a5761061961052b565b5b6106258482856105dc565b509392505050565b600082601f83011261064257610641610526565b5b81356106528482602086016105eb565b91505092915050565b6000602082840312156106715761067061051c565b5b600082013567ffffffffffffffff81111561068f5761068e610521565b5b61069b8482850161062d565b91505092915050565b7f4e487b7100000000000000000000000000000000000000000000000000000000600052602260045260246000fd5b600060028204905060018216806106eb57607f821691505b6020821081036106fe576106fd6106a4565b5b50919050565b60008190508160005260206000209050919050565b60006020601f8301049050919050565b600082821b905092915050565b6000600883026107667fffffffffffffffffffffffffffffffffffffffffffffffffffffffffffffffff82610729565b6107708683610729565b95508019841693508086168417925050509392505050565b6000819050919050565b6000819050919050565b60006107b76107b26107ad84610788565b610792565b610788565b9050919050565b6000819050919050565b6107d18361079c565b6107e56107dd826107be565b848454610736565b825550505050565b600090565b6107fa6107ed565b6108058184846107c8565b505050565b5b818110156108295761081e6000826107f2565b60018101905061080b565b5050565b601f82111561086e5761083f81610704565b61084884610719565b81016020851015610857578190505b61086b61086385610719565b83018261080a565b50505b505050565b600082821c905092915050565b600061089160001984600802610873565b1980831691505092915050565b60006108aa8383610880565b9150826002028217905092915050565b6108c382610404565b67ffffffffffffffff8111156108dc576108db610530565b5b6108e682546106d3565b6108f182828561082d565b600060209050601f8311600181146109245760008415610912578287015190505b61091c858261089e565b865550610984565b601f19841661093286610704565b60005b8281101561095a57848901518255600182019150602085019450602081019050610935565b868310156109775784890151610973601f891682610880565b8355505b6001600288020188555050505b50505050505056fea2646970667358221220b1d3fa7d094996e84e3ceefa3d304be38310451e05dc5b0cc110036436bd343264736f6c63430008110033",
  "linkReferences": {},
  "deployedLinkReferences": {}
}